:0300000002087281
:0C087200787FE4F6D8FD75810B020800C9
:10080000750800750903750A00750B04E4AD0BAC9F
:100810000AAF09AE08120828E4AD0BAC0AAF09AE66
:070820000812084BE4FEFF83
:0108270022AE
:10082800AB07AA06AF05AE041208608E838F82AFAD
:1008380003AE02AD03AC02120860EF2582FFEE356D
:0308480083FE220A
:10084B00EF8FF0A4FFAEF0ED8DF0A4FDACF0EF2D2B
:05085B00FFEE3CFE224F
:10086000EF8DF0A4A8F0CF8CF0A428CE8DF0A42EAC
:02087000FE2266
:00000001FF
